:020000040000fa
:080000000002040000000000f2
:020000040000fa
:04000800660300008b
:020000040000fa
:04000c006603000087
:020000040000fa
:040010006603000083
:020000040000fa
:04001400660300007f
:020000040000fa
:04001800660300007b
:020000040000fa
:04001c006603000077
:020000040000fa
:040020006603000073
:020000040000fa
:04002400660300006f
:020000040000fa
:04002800660300006b
:020000040000fa
:04002c006603000067
:020000040000fa
:040030006603000063
:020000040000fa
:04003400660300005f
:020000040000fa
:04003800660300005b
:020000040000fa
:04003c006603000057
:020000040000fa
:040040006603000053
:020000040000fa
:04004400660300004f
:020000040000fa
:040048003003000081
:020000040000fa
:04004c006603000047
:020000040000fa
:040050006603000043
:020000040000fa
:04005400660300003f
:020000040000fa
:04005800c8020000da
:020000040000fa
:04005c006603000037
:020000040000fa
:040060006603000033
:020000040000fa
:04006400660300002f
:020000040000fa
:04006800660300002b
:020000040000fa
:04006c001603000077
:020000040000fa
:040070006603000023
:020000040000fa
:04007400660300001f
:020000040000fa
:04007800660300001b
:020000040000fa
:04007c006603000017
:020000040000fa
:040080006603000013
:020000040000fa
:04008400660300000f
:020000040000fa
:04008800660300000b
:020000040000fa
:04008c006603000007
:020000040000fa
:040090006603000003
:020000040000fa
:0400940066030000ff
:020000040000fa
:0400980066030000fb
:020000040000fa
:04009c0066030000f7
:020000040000fa
:0400a00066030000f3
:020000040000fa
:0400a40066030000ef
:020000040000fa
:0400a80066030000eb
:020000040000fa
:0400ac0052030000fb
:020000040000fa
:0400b00066030000e3
:020000040000fa
:0400b40066030000df
:020000040000fa
:0400b80066030000db
:020000040000fa
:0400bc0066030000d7
:020000040000fa
:0400c00066030000d3
:020000040000fa
:0400c40066030000cf
:020000040000fa
:0400c80066030000cb
:020000040000fa
:0400cc0066030000c7
:020000040000fa
:0400d00066030000c3
:020000040000fa
:0400d40066030000bf
:020000040000fa
:0400d80066030000bb
:020000040000fa
:0400dc0066030000b7
:020000040000fa
:0400e00066030000b3
:020000040000fa
:0400e40066030000af
:020000040000fa
:0400e80066030000ab
:020000040000fa
:0400ec0066030000a7
:020000040000fa
:0400f00066030000a3
:020000040000fa
:0400f400660300009f
:020000040000fa
:0400f800660300009b
:020000040000fa
:0400fc006603000097
:020000040000fa
:040100006603000092
:020000040000fa
:04010400660300008e
:020000040000fa
:04010800660300008a
:020000040000fa
:04010c006603000086
:020000040000fa
:040110006603000082
:020000040000fa
:04011400660300007e
:020000040000fa
:04011800660300007a
:020000040000fa
:04011c006603000076
:020000040000fa
:040120006603000072
:020000040000fa
:04012400660300006e
:020000040000fa
:04012800660300006a
:020000040000fa
:04012c006603000066
:020000040000fa
:040130006603000062
:020000040000fa
:04013400660300005e
:020000040000fa
:04013800660300005a
:020000040000fa
:04013c006603000056
:020000040000fa
:040140006603000052
:020000040000fa
:04014400660300004e
:020000040000fa
:04014800660300004a
:020000040000fa
:04014c006603000046
:020000040000fa
:040150006603000042
:020000040000fa
:04015400660300003e
:020000040000fa
:04015800660300003a
:020000040000fa
:04015c006603000036
:020000040000fa
:040160006603000032
:020000040000fa
:04016400660300002e
:020000040000fa
:040208006603000089
:020000040000fa
:04020c006603000085
:020000040000fa
:040210006603000081
:020000040000fa
:04021400660300007d
:020000040000fa
:040218006603000079
:020000040000fa
:04021c006603000075
:020000040000fa
:040220006603000071
:020000040000fa
:04022400660300006d
:020000040000fa
:040228006603000069
:020000040000fa
:04022c006603000065
:020000040000fa
:040230006603000061
:020000040000fa
:04023400660300005d
:020000040000fa
:040238006603000059
:020000040000fa
:04023c006603000055
:020000040000fa
:040240006603000051
:020000040000fa
:04024400660300004d
:020000040000fa
:04024800300300007f
:020000040000fa
:04024c006603000045
:020000040000fa
:040250006603000041
:020000040000fa
:04025400660300003d
:020000040000fa
:04025800c8020000d8
:020000040000fa
:04025c006603000035
:020000040000fa
:040260006603000031
:020000040000fa
:04026400660300002d
:020000040000fa
:040268006603000029
:020000040000fa
:04026c001603000075
:020000040000fa
:040270006603000021
:020000040000fa
:04027400660300001d
:020000040000fa
:040278006603000019
:020000040000fa
:04027c006603000015
:020000040000fa
:040280006603000011
:020000040000fa
:04028400660300000d
:020000040000fa
:040288006603000009
:020000040000fa
:04028c006603000005
:020000040000fa
:040290006603000001
:020000040000fa
:0402940066030000fd
:020000040000fa
:0402980066030000f9
:020000040000fa
:04029c0066030000f5
:020000040000fa
:0402a00066030000f1
:020000040000fa
:0402a40066030000ed
:020000040000fa
:0402a80066030000e9
:020000040000fa
:0402ac0052030000f9
:020000040000fa
:0402b00066030000e1
:020000040000fa
:0402b40066030000dd
:020000040000fa
:0402b80066030000d9
:020000040000fa
:0402bc0066030000d5
:020000040000fa
:0402c00066030000d1
:020000040000fa
:0402c40066030000cd
:020000040000fa
:0402c80066030000c9
:020000040000fa
:0402cc0066030000c5
:020000040000fa
:0402d00066030000c1
:020000040000fa
:0402d40066030000bd
:020000040000fa
:0402d80066030000b9
:020000040000fa
:0402dc0066030000b5
:020000040000fa
:0402e00066030000b1
:020000040000fa
:0402e40066030000ad
:020000040000fa
:0402e80066030000a9
:020000040000fa
:0402ec0066030000a5
:020000040000fa
:0402f00066030000a1
:020000040000fa
:0402f400660300009d
:020000040000fa
:0402f8006603000099
:020000040000fa
:0402fc006603000095
:020000040000fa
:040300006603000090
:020000040000fa
:04030400660300008c
:020000040000fa
:040308006603000088
:020000040000fa
:04030c006603000084
:020000040000fa
:040310006603000080
:020000040000fa
:04031400660300007c
:020000040000fa
:040318006603000078
:020000040000fa
:04031c006603000074
:020000040000fa
:040320006603000070
:020000040000fa
:04032400660300006c
:020000040000fa
:040328006603000068
:020000040000fa
:04032c006603000064
:020000040000fa
:040330006603000060
:020000040000fa
:04033400660300005c
:020000040000fa
:040338006603000058
:020000040000fa
:04033c006603000054
:020000040000fa
:040340006603000050
:020000040000fa
:04034400660300004c
:020000040000fa
:040348006603000048
:020000040000fa
:04034c006603000044
:020000040000fa
:040350006603000040
:020000040000fa
:04035400660300003c
:020000040000fa
:040358006603000038
:020000040000fa
:04035c006603000034
:020000040000fa
:040360006603000030
:020000040000fa
:04036400660300002c
:020000040000fa
:100400006faf20000e7f24000e0188000000000066
:10041000000020000000e000020032000001200087
:100420002002880014000700aa0007000000e00076
:1004300003003a00a0ac20000100200002003700b9
:100440000000200001002000810f70000100320038
:1004500014000700000020000000e000020032004d
:1004600000000200000000003a0d02000000000041
:100470000040da000000fe004440a90060002000b7
:100480000000e0000300320000002000a00188000e
:100490004440a800000006008a1f78008b1f7800e7
:1004a0000000060091018800800478000000eb0045
:1004b0001a003700e284440032a0b4009905ba0063
:1004c000e284440032a0b4009906ba00e2844400f9
:1004d00032a0b4000006eb00476fde00fd07b2005b
:1004e000636ce10003003a00ebff07000000eb0043
:1004f0000a003700606ce10004003a00005deb0088
:100500008b05e900fdff3e00040037006168e10053
:10051000010032000086eb000b00070019c7ba008b
:100520001905ba000e04e00003003a000a00e000da
:10053000e0ff3a0000000600fe07b2009e018800be
:100540008a047800f5ff3700395dba008b05e900b1
:100550000c003200295dba008b05e900080032006a
:100560000c00e00003003a00e284440032a0b40032
:10057000f5ff370019ddba008b05e900faff3a00f4
:100580008904e800e184440032a0b40000000600c1
:10059000809fbe003400f80000002000a001880009
:1005a0000000fa000f0037008580a900614080003c
:1005b0000095200001004000104078000080fb0002
:1005c00020118800604080000000e8006040880042
:1005d00061408000b0122000808f50000100360082
:1005e0000c28ef006140800050408000808f500058
:1005f0000500320011118000002020000080600002
:100600000000e000e8ff32006140800050408000c0
:10061000808f500001003a009580a9000080fa0008
:100620003400f9004f00be0000400600801f780033
:100630003400f80000002000a00188000000fa004b
:100640008620a90000c8bf000040e80000e8b7000d
:100650000080fa003400f9004f00780000400600e6
:10066000809fbe003400f80000002000a001880038
:100670000000fa000041800011418000610040004c
:10068000e080480000418800114188008820a800cf
:100690008500a9000080fa003400f9004f00be0078
:1006a000004006003400f800881f78000800200091
:1006b000a80188004f0478000000fa008820a900f3
:1006c0000080fa003400f900004006000040da0023
:0806d0000000fe00000005001f
:020000040000fa
:0c06d80053740000617400006500000015
:020000040000fa
:1006e4000400fa0000e22400000f7800100020004b
:1006f4009e00780001017800110009000280d800f2
:100704008000eb0002402b000289b900020178004e
:10071400434c20000382b9008401780003014100a6
:1007240003402b000300b80001014100820078005f
:100734004e09dd004200de0000007100c208de0048
:10074400000078008080e9000e80e800010878004d
:100754000e80e80090007800211088000762a9004c
:100764009620a80061058000f0f82f00008060004a
:100774000040a0006005880007e2a8000080fa009d
:10078400000006000a00fa00004f78000e00e8009e
:10079400014878000e80e8000248780064004700b1
:1007a40003087800660047000408780068004700e2
:1007b4000508780009c8bf000080fb006a00b90082
:1007c40080007800c0a72000008040000000e800fe
:1007d4008e00e8001148780009c8bf000080fb00c3
:1007e4006a00b90080007800e0a720000080400083
:1007f4008e80e8001148780009c8bf000080fb0023
:100804006a00b9008000780000a820000080400041
:10081400e60047001108780009c8bf000080fb000b
:100824006a00b9008000780020a820000080400001
:10083400e40047001108780009c8bf000080fb00ed
:100844006a00b90080007800c0a720000080400042
:100854001e48780009c8bf000080fb006a00b90088
:100864008000780040a8200000804000e800470095
:100874001108780009c8bf000040e80009e8b70083
:1008840009c8bf00e54f500001003a000968ef00b5
:100894000080fa00000006000000fa0000c8bf0053
:1008a4000080fb00cf80de00020220000300200055
:1008b400820f5000838f5800a4013e0000600100a5
:1008c400200037003c003700450037005400370053
:1008d4006700370076003700810037009200370048
:1008e400a1003700b4003700c4003700d30037003c
:1008f400e0003700ef003700fa003700020137004c
:10090400110137002c0137003b0137004601370045
:100914004e0137005d0137008e0137008d0137002d
:100924008c0137008b0137008a01370089013700b9
:100934008801370087013700570137006a01370003
:1009440073013700918020009140780008c8bf00ef
:1009540080cf5000810132008620a90007e2a80060
:1009640008c8bf000080fb006a00b900800078005e
:10097400c0a7200000804000e1aa2000b018780041
:10098400a0107800e480400064004000b0187800b3
:10099400a0107800e48040006400400090087800d3
:1009a4008180e8000080e80000c8bf000040e80043
:1009b40000e8b7007c0137000602a8000768ef00d2
:1009c40000418000114180001040880021408800cf
:1009d40000c8bf000040e80000e8b700720137001b
:1009e40002418000134180001040800021408000bb
:1009f4000001510081815900a00020000100200065
:100a0400800f5100818f59005601360010c0b30089
:100a140006e8b700e0c1b30000e8b70062013700a0
:100a2400f0aa2000104078000004e0000d0032001d
:100a3400e0aa2000104078000080fb000000400085
:100a4400101088000041800011418000104088008f
:100a54002140880000c8bf000040e80000e8b7005b
:100a640051013700b0c0b30000e8b7004e013700b1
:100a7400024180001341800010408000214080002a
:100a84000001510081815900a000200001002000d4
:100a9400800f5100818f59003401360010c0b3001b
:100aa40006e8b700e0c1b30000e8b7003e01370034
:100ab4004110800000002800008060000000e00079
:100ac40004003a0000c8bf000040e80000e8b70096
:100ad40035013700e0c1b30000e8b7003201370048
:100ae400a155800007c8bf000080fb0000804000c3
:100af400104078000080fb00101088000041800046
:100b040011418000104088002140880007c8bf00c0
:100b14000040e80007e8b70000c8bf000040e80054
:100b240000e8b70020013700024180001341800033
:100b34001040800021408000000151008181590053
:100b4400a000200001002000800f5100818f590077
:100b54000801360010c0b30006e8b700e0c1b300d6
:100b640000e8b700100137004110800000002800a1
:100b7400008060000000e0000c003a00f0aa2000b1
:100b84009040780007c8bf0080cf500004003a00ae
:100b940000c8bf000040e80000e8b70002013700c9
:100ba40060c0b30000e8b700ff003700e0c1b30045
:100bb40000e8b700fc00370000ab200010407800cc
:100bc4000004e0000a0032000768ef000622a800d3
:100bd40000418000114180001040880021408800bd
:100be40000c8bf000040e80000e8b700ee0037008e
:100bf40030c1b30000e8b700eb00370002418000c9
:100c04001341800010408000214080000001510009
:100c140081815900a000200001002000800f5100b4
:100c2400818f5900d500360010c0b30006e8b70024
:100c3400e0c1b30000e8b700db003700e0aa200001
:100c4400104078000080fb00000040000000e80035
:100c5400101088000041800011418000104088007d
:100c64002140880000c8bf000040e80000e8b70049
:100c7400cd00370002418000134180001040800005
:100c8400214080000001510081815900a000200012
:100c940001002000800f5100818f5900b9003600f7
:100ca40010c0b30006e8b700e0c1b30000e8b70025
:100cb400bd00370041108000000028000080600063
:100cc4000000e00004003a0000c8bf000040e80053
:100cd40000e8b700b4003700e0c1b30000e8b70093
:100ce400b10037000662a800004180001141800075
:100cf400104088002140880000c8bf000040e80080
:100d040000e8b700a80037000241800013418000ca
:100d14001040800021408000000151008181590071
:100d2400a000200001002000800f5100818f590095
:100d34009600360010c0b30006e8b700e0c1b30067
:100d440000e8b700980037009155800007c8bf003d
:100d54000080fb000080400001108000814078008a
:100d64000148780007c8bf000040e80007e8b70062
:100d740000ab20009040780007c8bf0080cf50002f
:100d840003003a0006a2a8000682a8000200370069
:100d940006a2a9000682a80000418000114180003b
:100da400104088002140880000c8bf000040e800cf
:100db40000e8b7007c003700024180001341800046
:100dc40010408000214080000001510081815900c1
:100dd400a000200001002000800f5100818f5900e5
:100de4006c00360010c0b30006e8b700e0c1b300e1
:100df40000e8b7006c00370000ab2000904078009a
:100e040007c8bf0080cf500004003a0000c8bf00ec
:100e14000040e80000e8b70063003700e0c0b3001a
:100e240000e8b700600037000642a80000418000d7
:100e340011418000104088002140880000c8bf0094
:100e44000040e80000e8b700570037000241800086
:100e540013418000104080002140800000015100b7
:100e640081815900a000200001002000800f510062
:100e7400818f59004900360010c0b30006e8b7005e
:100e8400e0c1b30000e8b70047003700e0c1b30099
:100e940000e8b70044003700b055800011c0b3002b
:100ea4000148780008c8bf000040e80008e8b7001f
:100eb40008c8bf00e44f5000010036000868ef0086
:100ec40007e2a90006c8bf000004e00004003200e5
:100ed4000668ef00f0c1b30000e8b7003200370045
:100ee4000068ef00300037000041800011418000ad
:100ef4001040880021408800cb02a900c902a90043
:100f040000c8bf000040e80000e8b7002600370032
:100f14000241800013418000104080002140800085
:100f240000015100818159001000200001002000bf
:100f3400800f5100818f59001a003600cb02a8009f
:100f4400c902a8000068ef00170037000000000085
:100f540015003700000000001300370000000000f7
:100f640011003700000000000f00370000000000ef
:100f74000d003700000000000b00370000000000e7
:100f840009003700000000000700370000000000df
:100f940005003700000000000300370000000000d7
:100fa40001003700000000000080fa000000060085
:100fb4000000fa001228ef0010002000a040880072
:100fc400004180001141800000007800b04088009a
:100fd400a281200011c0b30010c9b3003c00070077
:100fe4000080fa00000006000600fa008e81e80086
:100ff4008049780063004700014878006400470096
:10100400020878001428ef0000ae20008e80e8006b
:101014001148780010c0b300004f78000b0037006f
:101024001e80fb009e80fb008100e90064014700f4
:1010340012017800810041009140780002ae200046
:1010440000004100014878001e4fe8009e80fb002c
:1010540063004700104078000080fb000000e800b7
:10106400808f5000eeff3500630047001040780089
:101074008040e8001bc8bf00458120000002eb004f
:1010840003ae20000041eb00befd07000080fa0023
:10109400000006000400fa008e80e8008048780012
:1010a4000e80e800104078000074a100004f780022
:1010b4000e01780011c0b300a0c8b300caff070036
:1010c4001e4078001be8b7000080fa00000006000c
:1010d4000400fa00004f78000e00e8000148780090
:1010e4000e80e800020878001428ef001e41780002
:1010f40081812000824878001bc8bf004581200000
:101104008e80e80011027800838120008e00e800c0
:101114001141780011c0b3009afd07000080fa0065
:10112400000006001200fa006e0147000089be00ac
:10113400a18120009140780010c0b300004f7800d6
:1011440012c0b3000e00e800024878000041eb0032
:101154000e80e800024878006300470001487800e8
:1011640011c0b30064004700014878008040eb00e0
:1011740065004700014878008040eb0066004700a6
:10118400014878000e01780011c0b30000c8b30014
:1011940095ff07000e00e8000001780011c0b300bd
:1011a40000c0eb0090ff07000e80e800000178000b
:1011b40011c0b3000040eb008bff07006300470041
:1011c4000001780011c0b30010c9b30086ff070006
:1011d400640047000001780011c0b3000040eb0038
:1011e40081ff0700650047000001780011c0b300cb
:1011f40000c0eb007cff0700660047000001780098
:1012040011c0b30000c8b30077ff07006e004700a9
:101214001000be00e00f5000e08f5800460032007e
:10122400680047000001780021c0b30080cfb300fc
:10123400a7ff070068004700100078000000e000e6
:101244001500320068004700100078008000eb00b1
:1012540070014700120178000091b9000201780082
:10126400ee01470093017800019ab90084017800e7
:1012740003014100ee014700930178000018b80013
:1012840001014100820078006e0147000089be0020
:101294006e0147000089be006e0047001000be00ca
:1012a4004808de00804078006a0047000148780062
:1012b4006e0047001000be004008de008040780049
:1012c4006b004700014878006e0047001000be0024
:1012d4004809dd004800de0000007100c808de0097
:1012e400804078006c004700014878006e00470099
:1012f40010007800804078006d00470001487800b5
:101304006a0047000001780041c0b30040c0b30048
:1013140035ff070041c0b30067004700014878006b
:10132400670047000001780011c0b3000040eb00e3
:101334002dff07000800370021c0b30067004700f5
:1013440001487800670047000001780011c0b3002d
:101354000040eb0024ff07001000200090408800ac
:101364000080fa00000006000400fa008e80e80005
:101374008008780090408000e30f50004300320062
:10138400e30f500005003e00e10f5000170032004b
:10139400e10f500025003e0007003700e50f500024
:1013a40065003200e50f50004f003900e60f500091
:1013b400680032007400370040af20008040eb002a
:1013c40001487800904080000000e80090408800c8
:1013d4006000b80053ff07000040eb00004f7800a6
:1013e4002dfd07001e4fe800fdff37001428ef0015
:1013f4009281200011c0b30030c1b30034ff070054
:1014040019c8bf006740600019e8b70000418000b8
:101414001141800000007800b040880090408000b6
:101424000000e8009040880057003700a04080008a
:10143400e10f500005003a00904080000000e800f1
:10144400904088001428ef004f003700b04080001f
:101454006101b80000418000114180000001510089
:1014640081815900e0408000f1408000800f5100ec
:10147400818f590041003600100020009040880000
:10148400c03628001e0107003f00370019c8bf00fe
:101494000004e00010003a00024180001341800083
:1014a400b04080008000eb000001510081815900b0
:1014b400e0408000f1408000800f5100818f59008e
:1014c400020036001228ef002f0037001000200021
:1014d400904088002c003700904080000000e80015
:1014e400904088002800370042af200021c0b3009c
:1014f400e0c1b300f6fe070040af200010407800c2
:101504008080fb0050af2000104078000080fb007a
:101514004800dd0000804000800078000e80e80074
:101524001000780001087800904080000000e80076
:101534009040880014003700a0408000e10f500064
:1015440010003a00904080000000e80090408800bd
:101554000d00370010c0b30019e8b70092812000d5
:1015640011c0b300b0c0b3009ffe070010002000fc
:1015740090408800000000000300370000000000d5
:1015840001003700000000000080fa00000006009f
:020000040000fa
:10159400240800002c0100000200000002010500e4
:1015a40068656c00700a0000000000000000000084
:1015b4000000000000000000000000000000000027
:1015c4000000000000000000000000000000000017
:1015d4000000000000000000000000000000000007
:1015e40000000000000000000000000000000000f7
:1015f40000000000000000000000000000000000e7
:1016040000000000000000000000000000000000d6
:1016140000000000000000000000000000000000c6
:1016240000000000000000000000000000000000b6
:1016340000000000000000000000000000000000a6
:101644000000000000000000000000000000000096
:101654000000000000000000000000000000000086
:101664000000000000000000000000000000000076
:101674000000000000000000000000000000000066
:101684000000000000000000000000000000000056
:101694000000000000000000000000000000000046
:1016a4000000000000000000000000000000000036
:1016b4000000000000000000000000000000000026
:1016c4000000000000000000000000000000000016
:1016d4000000000000000000000000000000000006
:1016e40000000000000000000000000000000000f6
:1016f40000000000000000000000000000000000e6
:1017040000000000000000000000000000000000d5
:1017140000000000000000000000000000000000c5
:10172400000000000000000000000000500900005c
:101734002c010000000000000a080000080000005e
:10174400000000007c0a00003c00000000000000d3
:10175400000800000a00000000000000200800004b
:101764000400000000000000b80a00002800000087
:10177400020000000500000000000000000000005e
:101784000000000000000000000000000000030052
:101794000000000000000000000000000000000045
:1017a400000000000000000000000000e00a00004b
:1017b40016000000000000001208000008000000ed
:1017c400000000001a0800000600000002000000eb
:0c17d40017296400000000000000000065
:020000040000fa
:1017e0000200fa008560a9008580a9000a28ef00a0
:1017f0000c28ef000e28ef001028ef0021358000a4
:1018000000fe2f0000806000c000b300203588007b
:1018100061368000f00f2e008080600000302000d4
:10182000010070006036880023e2a80023a2a9000e
:1018300011118000f0f32f0000806000101188006b
:1018400021e2a8002342a8003010200040118800a7
:101850008560a90030118000004f780030118000b1
:10186000004f780030118000004f78003011800068
:10187000004f780041058000f0ff280000806000e4
:1018800000e0a000400588005105800080ff2f0087
:10189000008060000020a000500588009560a8002e
:1018a0009580a9008580a8000080fa00000006004d
:1018b0000400fa008e80e8008048780051408000e3
:1018c000010f7800009520001e0040008e80e80087
:1018d000114878001e0fe800b01220009e0078002a
:1018e000808f5000020036000000eb00000f7800ef
:1018f0009e007800514088009580a8000080fa0082
:10190000000006000400fa008e80e80080087800dd
:101910000000eb00000f7800060037000e80e800a2
:10192000100078001e00400010407800e0ff070023
:101930001e0fe8000e80e800100078001e00400036
:10194000104078000004e000f4ff3a000080fa0044
:10195000000006000000fa002002a900011180002a
:1019600090ff2f00008060000011880020a2a900d5
:101970002062a900301020004011880023a2a90095
:1019800023e2a9002135800000fe2f0000806000c6
:10199000c000b3002035880061368000f00f2e00b3
:1019a00080806000003020000100700060368800f8
:1019b0009580a80021e2a8002342a800d042a900f7
:1019c0000080fa00000006000000fa00313a8000b2
:1019d00000e02f008080600060092000010070009e
:1019e000303a8800213a800000fe2f00008060001d
:1019f0005000b300203a8800213a8000f0f32f0015
:101a000000806000203a880012002000800720003b
:101a1000a1092000337420008049780081497800b2
:101a20008249780012002000600420007105200027
:101a30002374200080497800814978008249780029
:101a400000000000103a8000610060000000e0002b
:101a5000fcff3a0000000000113a80000002200064
:101a6000008060000000e000fbff32000080fa0010
:101a7000000006000600fa00d3ff0700b5ff0700cc
:101a80003900070017fb07006000b800008fbe0098
:101a900048fd07006000b800008fbe000500370059
:101aa0007efb070012002000030020001e0f4100f3
:101ab0005e974900703e2000010020001e01be001c
:101ac000800f5100818f5900f5ff36006000b8008b
:101ad00095fd07006000b800008fbe0005003700cc
:101ae0006efb070012002000030020001e0f4100c3
:101af0005e974900703e2000010020001e01be00dc
:101b0000800f5100818f5900f5ff36006000b8004a
:101b1000008fbe000100370000000000120020000e
:101b2000030020001e0f41005e9749005bfb070089
:101b300000712200010020001e01be00800f510034
:101b4000818f5900f4ff3a006400470000017800db
:101b500011c0b30030c1b3005efd07006000b800e3
:101b6000008fbe00edff37000000fa001221a9002f
:101b700091088000f0fc2f00008060000050a00061
:101b800090088800102720007008880013e1a80042
:101b9000400580007000b300400588009500a80053
:101ba0008800a9008820a9009800a8009820a80013
:101bb000a1058000f0f82f00008060000050a00018
:101bc000a0058800a105800080ff2f000080600034
:101bd0000020a000a00588000080fa000000060098
:101be0000800fa00640147000089be00024180003d
:101bf00013418000640047001000be00001f410038
:101c00000197490000000000004180001141800060
:101c1000be0f5000ae8f5800fbff36000080fa0068
:041c200000000600ba
:020000040000fa
:0200000401f009
:04000c0000000000f0
:020000040000fa
:0200000401f009
:0400100043000000a9
:020000040000fa
:0200000401f009
:040014005f00000089
:020000040000fa
:0200000401f009
:04001800f7000000ed
:020000040000fa
:0200000401f009
:04001c00dfff000002
:00000001FF
