:020000040000fa
:080000000002040000000000f2
:020000040000fa
:04000800660300008b
:020000040000fa
:04000c006603000087
:020000040000fa
:040010006603000083
:020000040000fa
:04001400660300007f
:020000040000fa
:04001800660300007b
:020000040000fa
:04001c006603000077
:020000040000fa
:040020006603000073
:020000040000fa
:04002400660300006f
:020000040000fa
:04002800660300006b
:020000040000fa
:04002c006603000067
:020000040000fa
:040030006603000063
:020000040000fa
:04003400660300005f
:020000040000fa
:04003800660300005b
:020000040000fa
:04003c006603000057
:020000040000fa
:040040006603000053
:020000040000fa
:04004400660300004f
:020000040000fa
:040048003003000081
:020000040000fa
:04004c006603000047
:020000040000fa
:040050006603000043
:020000040000fa
:04005400660300003f
:020000040000fa
:04005800c8020000da
:020000040000fa
:04005c006603000037
:020000040000fa
:040060006603000033
:020000040000fa
:04006400660300002f
:020000040000fa
:04006800660300002b
:020000040000fa
:04006c001603000077
:020000040000fa
:040070006603000023
:020000040000fa
:04007400660300001f
:020000040000fa
:04007800660300001b
:020000040000fa
:04007c006603000017
:020000040000fa
:040080006603000013
:020000040000fa
:04008400660300000f
:020000040000fa
:04008800660300000b
:020000040000fa
:04008c006603000007
:020000040000fa
:040090006603000003
:020000040000fa
:0400940066030000ff
:020000040000fa
:0400980066030000fb
:020000040000fa
:04009c0066030000f7
:020000040000fa
:0400a00066030000f3
:020000040000fa
:0400a40066030000ef
:020000040000fa
:0400a80066030000eb
:020000040000fa
:0400ac0052030000fb
:020000040000fa
:0400b00066030000e3
:020000040000fa
:0400b40066030000df
:020000040000fa
:0400b80066030000db
:020000040000fa
:0400bc0066030000d7
:020000040000fa
:0400c00066030000d3
:020000040000fa
:0400c40066030000cf
:020000040000fa
:0400c80066030000cb
:020000040000fa
:0400cc0066030000c7
:020000040000fa
:0400d00066030000c3
:020000040000fa
:0400d40066030000bf
:020000040000fa
:0400d80066030000bb
:020000040000fa
:0400dc0066030000b7
:020000040000fa
:0400e00066030000b3
:020000040000fa
:0400e40066030000af
:020000040000fa
:0400e80066030000ab
:020000040000fa
:0400ec0066030000a7
:020000040000fa
:0400f00066030000a3
:020000040000fa
:0400f400660300009f
:020000040000fa
:0400f800660300009b
:020000040000fa
:0400fc006603000097
:020000040000fa
:040100006603000092
:020000040000fa
:04010400660300008e
:020000040000fa
:04010800660300008a
:020000040000fa
:04010c006603000086
:020000040000fa
:040110006603000082
:020000040000fa
:04011400660300007e
:020000040000fa
:04011800660300007a
:020000040000fa
:04011c006603000076
:020000040000fa
:040120006603000072
:020000040000fa
:04012400660300006e
:020000040000fa
:04012800660300006a
:020000040000fa
:04012c006603000066
:020000040000fa
:040130006603000062
:020000040000fa
:04013400660300005e
:020000040000fa
:04013800660300005a
:020000040000fa
:04013c006603000056
:020000040000fa
:040140006603000052
:020000040000fa
:04014400660300004e
:020000040000fa
:04014800660300004a
:020000040000fa
:04014c006603000046
:020000040000fa
:040150006603000042
:020000040000fa
:04015400660300003e
:020000040000fa
:04015800660300003a
:020000040000fa
:04015c006603000036
:020000040000fa
:040160006603000032
:020000040000fa
:04016400660300002e
:020000040000fa
:040208006603000089
:020000040000fa
:04020c006603000085
:020000040000fa
:040210006603000081
:020000040000fa
:04021400660300007d
:020000040000fa
:040218006603000079
:020000040000fa
:04021c006603000075
:020000040000fa
:040220006603000071
:020000040000fa
:04022400660300006d
:020000040000fa
:040228006603000069
:020000040000fa
:04022c006603000065
:020000040000fa
:040230006603000061
:020000040000fa
:04023400660300005d
:020000040000fa
:040238006603000059
:020000040000fa
:04023c006603000055
:020000040000fa
:040240006603000051
:020000040000fa
:04024400660300004d
:020000040000fa
:04024800300300007f
:020000040000fa
:04024c006603000045
:020000040000fa
:040250006603000041
:020000040000fa
:04025400660300003d
:020000040000fa
:04025800c8020000d8
:020000040000fa
:04025c006603000035
:020000040000fa
:040260006603000031
:020000040000fa
:04026400660300002d
:020000040000fa
:040268006603000029
:020000040000fa
:04026c001603000075
:020000040000fa
:040270006603000021
:020000040000fa
:04027400660300001d
:020000040000fa
:040278006603000019
:020000040000fa
:04027c006603000015
:020000040000fa
:040280006603000011
:020000040000fa
:04028400660300000d
:020000040000fa
:040288006603000009
:020000040000fa
:04028c006603000005
:020000040000fa
:040290006603000001
:020000040000fa
:0402940066030000fd
:020000040000fa
:0402980066030000f9
:020000040000fa
:04029c0066030000f5
:020000040000fa
:0402a00066030000f1
:020000040000fa
:0402a40066030000ed
:020000040000fa
:0402a80066030000e9
:020000040000fa
:0402ac0052030000f9
:020000040000fa
:0402b00066030000e1
:020000040000fa
:0402b40066030000dd
:020000040000fa
:0402b80066030000d9
:020000040000fa
:0402bc0066030000d5
:020000040000fa
:0402c00066030000d1
:020000040000fa
:0402c40066030000cd
:020000040000fa
:0402c80066030000c9
:020000040000fa
:0402cc0066030000c5
:020000040000fa
:0402d00066030000c1
:020000040000fa
:0402d40066030000bd
:020000040000fa
:0402d80066030000b9
:020000040000fa
:0402dc0066030000b5
:020000040000fa
:0402e00066030000b1
:020000040000fa
:0402e40066030000ad
:020000040000fa
:0402e80066030000a9
:020000040000fa
:0402ec0066030000a5
:020000040000fa
:0402f00066030000a1
:020000040000fa
:0402f400660300009d
:020000040000fa
:0402f8006603000099
:020000040000fa
:0402fc006603000095
:020000040000fa
:040300006603000090
:020000040000fa
:04030400660300008c
:020000040000fa
:040308006603000088
:020000040000fa
:04030c006603000084
:020000040000fa
:040310006603000080
:020000040000fa
:04031400660300007c
:020000040000fa
:040318006603000078
:020000040000fa
:04031c006603000074
:020000040000fa
:040320006603000070
:020000040000fa
:04032400660300006c
:020000040000fa
:040328006603000068
:020000040000fa
:04032c006603000064
:020000040000fa
:040330006603000060
:020000040000fa
:04033400660300005c
:020000040000fa
:040338006603000058
:020000040000fa
:04033c006603000054
:020000040000fa
:040340006603000050
:020000040000fa
:04034400660300004c
:020000040000fa
:040348006603000048
:020000040000fa
:04034c006603000044
:020000040000fa
:040350006603000040
:020000040000fa
:04035400660300003c
:020000040000fa
:040358006603000038
:020000040000fa
:04035c006603000034
:020000040000fa
:040360006603000030
:020000040000fa
:04036400660300002c
:020000040000fa
:100400004fac20000e7f24000e0188000000000089
:10041000000020000000e000020032000001200087
:100420002002880014000700aa0007000000e00076
:1004300003003a00407d2000010020000200370048
:100440000000200001002000810f70000100320038
:1004500014000700000020000000e000020032004d
:1004600000000200000000005e0902000000000021
:100470000040da000000fe004440a9000000200017
:100480000000e0000300320000002000a00188000e
:100490004440a800000006008a1f78008b1f7800e7
:1004a0000000060091018800800478000000eb0045
:1004b0001a003700e284440032a0b4009905ba0063
:1004c000e284440032a0b4009906ba00e2844400f9
:1004d00032a0b4000006eb00476fde00fd07b2005b
:1004e000636ce10003003a00ebff07000000eb0043
:1004f0000a003700606ce10004003a00005deb0088
:100500008b05e900fdff3e00040037006168e10053
:10051000010032000086eb000b00070019c7ba008b
:100520001905ba000e04e00003003a000a00e000da
:10053000e0ff3a0000000600fe07b2009e018800be
:100540008a047800f5ff3700395dba008b05e900b1
:100550000c003200295dba008b05e900080032006a
:100560000c00e00003003a00e284440032a0b40032
:10057000f5ff370019ddba008b05e900faff3a00f4
:100580008904e800e184440032a0b40000000600c1
:10059000809fbe003400f80000002000a001880009
:1005a0000000fa000f0037008580a900614080003c
:1005b0008094200001004000104078000080fb0083
:1005c00020118800604080000000e8006040880042
:1005d00061408000b0122000808f50000100360082
:1005e0000c28ef006140800050408000808f500058
:1005f0000500320011118000002020000080600002
:100600000000e000e8ff32006140800050408000c0
:10061000808f500001003a009580a9000080fa0008
:100620003400f9004f00be0000400600801f780033
:100630003400f80000002000a00188000000fa004b
:100640008620a90000c8bf000040e80000e8b7000d
:100650000080fa003400f9004f00780000400600e6
:10066000809fbe003400f80000002000a001880038
:100670000000fa00c0408000d140800061004000ce
:10068000e0804800c0408800d14088008820a80051
:100690008500a9000080fa003400f9004f00be0078
:1006a000004006003400f800881f78000800200091
:1006b000a80188004f0478000000fa008820a900f3
:1006c0000080fa003400f900004006000040da0023
:0806d0000000fe00000005001f
:020000040000fa
:1006d8000400fa0000e22400000f78001000200057
:1006e8009e00780001017800110009000280d800fe
:1006f8008000eb0002402b000289b900020178005b
:10070800434c20000382b9008401780003014100b2
:1007180003402b000300b80001014100820078006b
:100728004e09dd004200de0000007100c208de0054
:10073800000078008080e9000e80e8000108780059
:100748000e80e80090007800211088000762a90058
:100758009620a80061058000f0f82f000080600056
:100768000040a0006005880007e2a8000080fa00a9
:10077800000006000a00fa00004f78000e00e800aa
:10078800014878000e80e8000248780064004700bd
:1007980003087800660047000408780068004700ee
:1007a8000508780009c8bf000080fb006a00b9008e
:1007b8008000780040a72000008040000000e8008a
:1007c8008e00e8001148780009c8bf000080fb00cf
:1007d8006a00b9008000780060a72000008040000f
:1007e8008e80e8001148780009c8bf000080fb002f
:1007f8006a00b9008000780080a7200000804000cf
:10080800e60047001108780009c8bf000080fb0017
:100818006a00b90080007800a0a72000008040008e
:10082800e40047001108780009c8bf000080fb00f9
:100838006a00b9008000780040a7200000804000ce
:100848001e48780009c8bf000080fb006a00b90094
:1008580080007800c0a7200000804000e800470022
:100868001108780009c8bf000040e80009e8b7008f
:1008780009c8bf00e54f500001003a000968ef00c1
:100888000080fa00000006000000fa0000c8bf005f
:100898000080fb00cf80de00020220000300200061
:1008a800820f5000838f5800a4013e0000600100b1
:1008b800200037003c00370045003700540037005f
:1008c8006700370076003700810037009200370054
:1008d800a1003700b4003700c4003700d300370048
:1008e800e0003700ef003700fa0037000201370058
:1008f800110137002c0137003b0137004601370052
:100908004e0137005d0137008e0137008d01370039
:100918008c0137008b0137008a01370089013700c5
:100928008801370087013700570137006a0137000f
:1009380073013700918020009140780008c8bf00fb
:1009480080cf5000810132008620a90007e2a8006c
:1009580008c8bf000080fb006a00b900800078006a
:1009680040a720000080400061aa2000b01878004d
:10097800a0107800e480400064004000b0187800bf
:10098800a0107800e48040006400400090087800df
:100998008180e8000080e80000c8bf000040e8004f
:1009a80000e8b7007c0137000602a8000768ef00de
:1009b800c0408000d140800010408800214088005d
:1009c80000c8bf000040e80000e8b7007201370027
:1009d800c2408000d3408000104080002140800049
:1009e8000001510081815900a00020000100200071
:1009f800800f5100818f59005601360010c0b30096
:100a080006e8b700e0c1b30000e8b70062013700ac
:100a180070aa2000104078000004e0000d003200a9
:100a280060aa2000104078000080fb000000400011
:100a380010108800c0408000d1408000104088001d
:100a48002140880000c8bf000040e80000e8b70067
:100a580051013700b0c0b30000e8b7004e013700bd
:100a6800c2408000d34080001040800021408000b8
:100a78000001510081815900a000200001002000e0
:100a8800800f5100818f59003401360010c0b30027
:100a980006e8b700e0c1b30000e8b7003e01370040
:100aa8004110800000002800008060000000e00085
:100ab80004003a0000c8bf000040e80000e8b700a2
:100ac80035013700e0c1b30000e8b7003201370054
:100ad8006155800007c8bf000080fb00008040000f
:100ae800104078000080fb0010108800c040800093
:100af800d1408000104088002140880007c8bf000e
:100b08000040e80007e8b70000c8bf000040e80060
:100b180000e8b70020013700c2408000d3408000c1
:100b2800104080002140800000015100818159005f
:100b3800a000200001002000800f5100818f590083
:100b48000801360010c0b30006e8b700e0c1b300e2
:100b580000e8b700100137004110800000002800ad
:100b6800008060000000e0000c003a0070aa20003d
:100b78009040780007c8bf0080cf500004003a00ba
:100b880000c8bf000040e80000e8b70002013700d5
:100b980060c0b30000e8b700ff003700e0c1b30051
:100ba80000e8b700fc00370080aa20001040780059
:100bb8000004e0000a0032000768ef000622a800df
:100bc800c0408000d140800010408800214088004b
:100bd80000c8bf000040e80000e8b700ee0037009a
:100be80030c1b30000e8b700eb003700c240800016
:100bf800d340800010408000214080000001510057
:100c080081815900a000200001002000800f5100c0
:100c1800818f5900d500360010c0b30006e8b70030
:100c2800e0c1b30000e8b700db00370060aa20008d
:100c3800104078000080fb00000040000000e80041
:100c480010108800c0408000d1408000104088000b
:100c58002140880000c8bf000040e80000e8b70055
:100c6800cd003700c2408000d34080001040800093
:100c7800214080000001510081815900a00020001e
:100c880001002000800f5100818f5900b900360003
:100c980010c0b30006e8b700e0c1b30000e8b70031
:100ca800bd0037004110800000002800008060006f
:100cb8000000e00004003a0000c8bf000040e8005f
:100cc80000e8b700b4003700e0c1b30000e8b7009f
:100cd800b10037000662a800c0408000d140800003
:100ce800104088002140880000c8bf000040e8008c
:100cf80000e8b700a8003700c2408000d340800059
:100d0800104080002140800000015100818159007d
:100d1800a000200001002000800f5100818f5900a1
:100d28009600360010c0b30006e8b700e0c1b30073
:100d380000e8b700980037005155800007c8bf0089
:100d48000080fb0000804000011080008140780096
:100d58000148780007c8bf000040e80007e8b7006e
:100d680080aa20009040780007c8bf0080cf5000bc
:100d780003003a0006a2a8000682a8000200370075
:100d880006a2a9000682a800c0408000d1408000c9
:100d9800104088002140880000c8bf000040e800db
:100da80000e8b7007c003700c2408000d3408000d4
:100db80010408000214080000001510081815900cd
:100dc800a000200001002000800f5100818f5900f1
:100dd8006c00360010c0b30006e8b700e0c1b300ed
:100de80000e8b7006c00370080aa20009040780027
:100df80007c8bf0080cf500004003a0000c8bf00f9
:100e08000040e80000e8b70063003700e0c0b30026
:100e180000e8b700600037000642a800c040800024
:100e2800d1408000104088002140880000c8bf00e1
:100e38000040e80000e8b70057003700c2408000d3
:100e4800d340800010408000214080000001510004
:100e580081815900a000200001002000800f51006e
:100e6800818f59004900360010c0b30006e8b7006a
:100e7800e0c1b30000e8b70047003700e0c1b300a5
:100e880000e8b700440037007055800011c0b30077
:100e98000148780008c8bf000040e80008e8b7002b
:100ea80008c8bf00e44f5000010036000868ef0092
:100eb80007e2a90006c8bf000004e00004003200f1
:100ec8000668ef00f0c1b30000e8b7003200370051
:100ed8000068ef0030003700c0408000d14080003b
:100ee8001040880021408800cb02a900c902a9004f
:100ef80000c8bf000040e80000e8b700260037003f
:100f0800c2408000d3408000104080002140800013
:100f180000015100818159001000200001002000cb
:100f2800800f5100818f59001a003600cb02a800ab
:100f3800c902a8000068ef00170037000000000091
:100f48001500370000000000130037000000000003
:100f580011003700000000000f00370000000000fb
:100f68000d003700000000000b00370000000000f3
:100f780009003700000000000700370000000000eb
:100f880005003700000000000300370000000000e3
:100f980001003700000000000080fa000000060091
:020000040000fa
:100fa8001c0800002c0100000200000002010500de
:100fb80068656c00700a0000000000000000000076
:100fc8000000000000000000000000000000000019
:100fd8000000000000000000000000000000000009
:100fe80000000000000000000000000000000000f9
:100ff80000000000000000000000000000000000e9
:1010080000000000000000000000000000000000d8
:1010180000000000000000000000000000000000c8
:1010280000000000000000000000000000000000b8
:1010380000000000000000000000000000000000a8
:101048000000000000000000000000000000000098
:101058000000000000000000000000000000000088
:101068000000000000000000000000000000000078
:101078000000000000000000000000000000000068
:101088000000000000000000000000000000000058
:101098000000000000000000000000000000000048
:1010a8000000000000000000000000000000000038
:1010b8000000000000000000000000000000000028
:1010c8000000000000000000000000000000000018
:1010d8000000000000000000000000000000000008
:1010e80000000000000000000000000000000000f8
:1010f80000000000000000000000000000000000e8
:1011080000000000000000000000000000000000d7
:1011180000000000000000000000000000000000c7
:1011280000000000000000000000000000000000b7
:101138000000000000000000000000004809000056
:101148002c010000000000000a0800000800000050
:1011580000000000740a00003c00000000000000cd
:10116800000800000a000000000000001808000045
:101178000400000000000000b00a00001400000095
:101188000000000012080000060000000000000037
:041198000000000053
:020000040000fa
:10119c000000fa00313a800000e02f0080806000ef
:1011ac006009200001007000303a8800213a80006c
:1011bc0000fe2f00008060005000b300203a880031
:1011cc00213a8000f0f32f0000806000203a880064
:1011dc001200200080072000a10920003374200099
:1011ec0080497800814978008249780012002000fb
:1011fc0060042000710520002374200080497800d1
:10120c00814978008249780000000000103a800083
:10121c00610060000000e000fcff3a0000000000ec
:10122c00113a800000022000008060000000e00005
:10123c00fbff32000080fa00000006000000fa00fc
:10124c002002a9000111800090ff2f000080600097
:10125c000011880020a2a9002062a90030102000f3
:10126c004011880023a2a90023e2a90021358000a7
:10127c0000fe2f0000806000c000b3002035880005
:10128c0061368000f00f2e0080806000003020005e
:10129c0001007000603688009580a80021e2a8004b
:1012ac002342a800d042a9000080fa0000000600ea
:1012bc000400fa00b6ff0700e0ff0700710007000a
:1012cc0002fd07006000b800008fbe00010037006f
:1012dc000000000012002000030020001e0f41003f
:1012ec005e97490067fd0700006a28001100200086
:1012fc001e01be00800f5100818f5900f4ff3a008f
:10130c00a90007006000b800008fbe00f1ff370095
:10131c000200fa008560a9008580a9000a28ef0068
:10132c000c28ef000e28ef001028ef00213580006c
:10133c0000fe2f0000806000c000b3002035880044
:10134c0061368000f00f2e0080806000003020009d
:10135c00010070006036880023e2a80023a2a900d7
:10136c0011118000f0f32f00008060001011880034
:10137c0021e2a8002342a800301020004011880070
:10138c008560a90030118000004f7800301180007a
:10139c00004f780030118000004f78003011800031
:1013ac00004f780041058000f0ff280000806000ad
:1013bc0000e0a000400588005105800080ff2f0050
:1013cc00008060000020a000500588009560a800f7
:1013dc009580a9008580a8000080fa000000060016
:1013ec000400fa008e80e8008048780051408000ac
:1013fc00010f7800809420001e0040008e80e800d1
:10140c00114878001e0fe800b01220009e007800f2
:10141c00808f5000020036000000eb00000f7800b7
:10142c009e007800514088009580a8000080fa004a
:10143c00000006000400fa008e80e80080087800a6
:10144c000000eb00000f7800060037000e80e8006b
:10145c00100078001e00400010407800e0ff0700ec
:10146c001e0fe8000e80e800100078001e004000ff
:10147c00104078000004e000f4ff3a000080fa000d
:10148c00000006000000fa001221a900910880005b
:10149c00f0fc2f00008060000050a0009008880035
:1014ac00102720007008880013e1a8004005800078
:1014bc007000b300400588009500a8008800a900c2
:1014cc008820a9009800a8009820a800a1058000f9
:1014dc00f0f82f00008060000050a000a0058800ec
:1014ec00a105800080ff2f00008060000020a0007c
:1014fc00a00588000080fa00000006000800fa0031
:10150c00640147000089be00c2408000d3408000c7
:10151c00640047001000be00001f41000197490005
:10152c0000000000c0408000d1408000be0f500081
:10153c00ae8f5800fbff36000080fa00000006005a
:10154c000000fa001228ef0010002000a0408800d4
:10155c00c0408000d140800000007800b04088007e
:10156c000080fa00000006000200fa00004f78002c
:10157c001428ef00c0408000d140800000007800ab
:10158c00b0408800458120000002eb0003ab200036
:10159c000041eb009e40780020c5b30074fc0700ae
:1015ac000080fa00000006000000fa0000ab2000ea
:1015bc0081c3b3000148780010c0b300eaff0700f4
:0815cc000080fa000000060097
:020000040000fa
:0200000401f009
:04000c0000000000f0
:020000040000fa
:0200000401f009
:0400100043000000a9
:020000040000fa
:0200000401f009
:040014005f00000089
:020000040000fa
:0200000401f009
:04001800f7000000ed
:020000040000fa
:0200000401f009
:04001c00dfff000002
:00000001FF
