:020000040000fa
:080000000002040000000000f2
:020000040000fa
:04000800660300008b
:020000040000fa
:04000c006603000087
:020000040000fa
:040010006603000083
:020000040000fa
:04001400660300007f
:020000040000fa
:04001800660300007b
:020000040000fa
:04001c006603000077
:020000040000fa
:040020006603000073
:020000040000fa
:04002400660300006f
:020000040000fa
:04002800660300006b
:020000040000fa
:04002c006603000067
:020000040000fa
:040030006603000063
:020000040000fa
:04003400660300005f
:020000040000fa
:04003800660300005b
:020000040000fa
:04003c006603000057
:020000040000fa
:040040006603000053
:020000040000fa
:04004400660300004f
:020000040000fa
:040048003003000081
:020000040000fa
:04004c006603000047
:020000040000fa
:040050006603000043
:020000040000fa
:04005400660300003f
:020000040000fa
:04005800c8020000da
:020000040000fa
:04005c006603000037
:020000040000fa
:040060006603000033
:020000040000fa
:04006400660300002f
:020000040000fa
:04006800660300002b
:020000040000fa
:04006c001603000077
:020000040000fa
:040070006603000023
:020000040000fa
:04007400660300001f
:020000040000fa
:04007800660300001b
:020000040000fa
:04007c006603000017
:020000040000fa
:040080006603000013
:020000040000fa
:04008400660300000f
:020000040000fa
:04008800660300000b
:020000040000fa
:04008c006603000007
:020000040000fa
:040090006603000003
:020000040000fa
:0400940066030000ff
:020000040000fa
:0400980066030000fb
:020000040000fa
:04009c0066030000f7
:020000040000fa
:0400a00066030000f3
:020000040000fa
:0400a40066030000ef
:020000040000fa
:0400a80066030000eb
:020000040000fa
:0400ac0052030000fb
:020000040000fa
:0400b00066030000e3
:020000040000fa
:0400b40066030000df
:020000040000fa
:0400b80066030000db
:020000040000fa
:0400bc0066030000d7
:020000040000fa
:0400c00066030000d3
:020000040000fa
:0400c40066030000cf
:020000040000fa
:0400c80066030000cb
:020000040000fa
:0400cc0066030000c7
:020000040000fa
:0400d00066030000c3
:020000040000fa
:0400d40066030000bf
:020000040000fa
:0400d80066030000bb
:020000040000fa
:0400dc0066030000b7
:020000040000fa
:0400e00066030000b3
:020000040000fa
:0400e40066030000af
:020000040000fa
:0400e80066030000ab
:020000040000fa
:0400ec0066030000a7
:020000040000fa
:0400f00066030000a3
:020000040000fa
:0400f400660300009f
:020000040000fa
:0400f800660300009b
:020000040000fa
:0400fc006603000097
:020000040000fa
:040100006603000092
:020000040000fa
:04010400660300008e
:020000040000fa
:04010800660300008a
:020000040000fa
:04010c006603000086
:020000040000fa
:040110006603000082
:020000040000fa
:04011400660300007e
:020000040000fa
:04011800660300007a
:020000040000fa
:04011c006603000076
:020000040000fa
:040120006603000072
:020000040000fa
:04012400660300006e
:020000040000fa
:04012800660300006a
:020000040000fa
:04012c006603000066
:020000040000fa
:040130006603000062
:020000040000fa
:04013400660300005e
:020000040000fa
:04013800660300005a
:020000040000fa
:04013c006603000056
:020000040000fa
:040140006603000052
:020000040000fa
:04014400660300004e
:020000040000fa
:04014800660300004a
:020000040000fa
:04014c006603000046
:020000040000fa
:040150006603000042
:020000040000fa
:04015400660300003e
:020000040000fa
:04015800660300003a
:020000040000fa
:04015c006603000036
:020000040000fa
:040160006603000032
:020000040000fa
:04016400660300002e
:020000040000fa
:040208006603000089
:020000040000fa
:04020c006603000085
:020000040000fa
:040210006603000081
:020000040000fa
:04021400660300007d
:020000040000fa
:040218006603000079
:020000040000fa
:04021c006603000075
:020000040000fa
:040220006603000071
:020000040000fa
:04022400660300006d
:020000040000fa
:040228006603000069
:020000040000fa
:04022c006603000065
:020000040000fa
:040230006603000061
:020000040000fa
:04023400660300005d
:020000040000fa
:040238006603000059
:020000040000fa
:04023c006603000055
:020000040000fa
:040240006603000051
:020000040000fa
:04024400660300004d
:020000040000fa
:04024800300300007f
:020000040000fa
:04024c006603000045
:020000040000fa
:040250006603000041
:020000040000fa
:04025400660300003d
:020000040000fa
:04025800c8020000d8
:020000040000fa
:04025c006603000035
:020000040000fa
:040260006603000031
:020000040000fa
:04026400660300002d
:020000040000fa
:040268006603000029
:020000040000fa
:04026c001603000075
:020000040000fa
:040270006603000021
:020000040000fa
:04027400660300001d
:020000040000fa
:040278006603000019
:020000040000fa
:04027c006603000015
:020000040000fa
:040280006603000011
:020000040000fa
:04028400660300000d
:020000040000fa
:040288006603000009
:020000040000fa
:04028c006603000005
:020000040000fa
:040290006603000001
:020000040000fa
:0402940066030000fd
:020000040000fa
:0402980066030000f9
:020000040000fa
:04029c0066030000f5
:020000040000fa
:0402a00066030000f1
:020000040000fa
:0402a40066030000ed
:020000040000fa
:0402a80066030000e9
:020000040000fa
:0402ac0052030000f9
:020000040000fa
:0402b00066030000e1
:020000040000fa
:0402b40066030000dd
:020000040000fa
:0402b80066030000d9
:020000040000fa
:0402bc0066030000d5
:020000040000fa
:0402c00066030000d1
:020000040000fa
:0402c40066030000cd
:020000040000fa
:0402c80066030000c9
:020000040000fa
:0402cc0066030000c5
:020000040000fa
:0402d00066030000c1
:020000040000fa
:0402d40066030000bd
:020000040000fa
:0402d80066030000b9
:020000040000fa
:0402dc0066030000b5
:020000040000fa
:0402e00066030000b1
:020000040000fa
:0402e40066030000ad
:020000040000fa
:0402e80066030000a9
:020000040000fa
:0402ec0066030000a5
:020000040000fa
:0402f00066030000a1
:020000040000fa
:0402f400660300009d
:020000040000fa
:0402f8006603000099
:020000040000fa
:0402fc006603000095
:020000040000fa
:040300006603000090
:020000040000fa
:04030400660300008c
:020000040000fa
:040308006603000088
:020000040000fa
:04030c006603000084
:020000040000fa
:040310006603000080
:020000040000fa
:04031400660300007c
:020000040000fa
:040318006603000078
:020000040000fa
:04031c006603000074
:020000040000fa
:040320006603000070
:020000040000fa
:04032400660300006c
:020000040000fa
:040328006603000068
:020000040000fa
:04032c006603000064
:020000040000fa
:040330006603000060
:020000040000fa
:04033400660300005c
:020000040000fa
:040338006603000058
:020000040000fa
:04033c006603000054
:020000040000fa
:040340006603000050
:020000040000fa
:04034400660300004c
:020000040000fa
:040348006603000048
:020000040000fa
:04034c006603000044
:020000040000fa
:040350006603000040
:020000040000fa
:04035400660300003c
:020000040000fa
:040358006603000038
:020000040000fa
:04035c006603000034
:020000040000fa
:040360006603000030
:020000040000fa
:04036400660300002c
:020000040000fa
:100400004fb120000e7f24000e0188000000000084
:10041000000020000000e000020032000001200087
:100420002002880014000700aa0007000000e00076
:1004300003003a0040812100010020000200370043
:100440000000200001002000810f70000100320038
:1004500014000700000020000000e000020032004d
:100460000000020000000000ce1a020000000000a0
:100470000040da000000fe004440a900a001200076
:100480000000e0000300320000002000a00188000e
:100490004440a800000006008a1f78008b1f7800e7
:1004a0000000060091018800800478000000eb0045
:1004b0001a003700e284440032a0b4009905ba0063
:1004c000e284440032a0b4009906ba00e2844400f9
:1004d00032a0b4000006eb00476fde00fd07b2005b
:1004e000636ce10003003a00ebff07000000eb0043
:1004f0000a003700606ce10004003a00005deb0088
:100500008b05e900fdff3e00040037006168e10053
:10051000010032000086eb000b00070019c7ba008b
:100520001905ba000e04e00003003a000a00e000da
:10053000e0ff3a0000000600fe07b2009e018800be
:100540008a047800f5ff3700395dba008b05e900b1
:100550000c003200295dba008b05e900080032006a
:100560000c00e00003003a00e284440032a0b40032
:10057000f5ff370019ddba008b05e900faff3a00f4
:100580008904e800e184440032a0b40000000600c1
:10059000809fbe003400f80000002000a001880009
:1005a0000000fa000f0037008580a900614080003c
:1005b0000095200001004000104078000080fb0002
:1005c00020118800604080000000e8006040880042
:1005d00061408000b0122000808f50000100360082
:1005e0000c28ef006140800050408000808f500058
:1005f0000500320011118000002020000080600002
:100600000000e000e8ff32006140800050408000c0
:10061000808f500001003a009580a9000080fa0008
:100620003400f9004f00be0000400600801f780033
:100630003400f80000002000a00188000000fa004b
:100640008620a90000c8bf000040e80000e8b7000d
:100650000080fa003400f9004f00780000400600e6
:10066000809fbe003400f80000002000a001880038
:100670000000fa000041800011418000610040004c
:10068000e080480000418800114188008820a800cf
:100690008500a9000080fa003400f9004f00be0078
:1006a000004006003400f800881f78000800200091
:1006b000a80188004f0478000000fa008820a900f3
:1006c0000080fa003400f900004006000040da0023
:1006d0000000fe00000005000000fa00cfb89700ff
:1006e00068815700df0107000080fa000000060063
:1006f000040007005c0007000c010700340107003c
:100700008e003700ec874700889fbe008a9fbe009e
:100710008c9fbe008e1f78000006780001047800d0
:10072000180790002805900098067800cdb79f0024
:10073000b80590003202be002203be000400be00d5
:100740000601be004f18de006011b8008000eb000b
:10075000d0b79f00e1b79f00f2b79f0083bf9f0013
:10076000800478000900e000060032006000b80054
:100770006011b80004025000858258000603590039
:10078000878359000e00e000020035000d10a10023
:10079000cdb79f000900e00005003a004fb0970078
:1007a0000028a30002003a000038a3000200320033
:1007b0008a00e900010037008a007800f8815700bc
:1007c000a200200008007800860007000900e00071
:1007d00003003a00cfb097000128a30008003200c0
:1007e0000000e90000814500b1c2b3000900e0004b
:1007f00001003200d1c2b300014978000500370082
:100800000138a300030032000000e90001c2b30078
:1008100081757800480190000201e9000001510053
:10082000808045004fb297008a0178000c00780064
:10083000a40107009c0090000188a300040032007e
:1008400098009000810f500001003d0001007800e9
:100850004f0778004f06be004f05be004f04be0094
:10086000cf00b100000006000200fa00889fbe0021
:100870008a9fbe000005780001047800020078001d
:1008800018019000a805900098007800b1bf9f0063
:10089000b80490000200e000020035000110a10041
:1008a000b1bf9f00ea815700820020008b007800d2
:1008b0003002be002003be00080078004900070097
:1008c0003fb99700f0006100030032000000e9002a
:1008d00001c3b300817478003fb99700e80061005c
:1008e000030032000000e90001c2b3008174780007
:1008f000480190000201e90000015100808044009d
:100900003fba97008b0178000a0078006d0107005c
:100910009a0090000188a300040032009800900023
:10092000810f500001003d00010078004f05be001e
:100930004f04be000080fa0000000600ea8747006e
:10094000889fbe008a9fbe008e1f7800000478003a
:10095000030078007287570084e2260055c72600fe
:10096000049fbe00c3962200030f78006c875700d7
:10097000004feb0011059000a10490009105780054
:100980000200e00002003200020778000100370098
:10099000728757000000e00002003a000e00780065
:1009a000850307000a00e000030035008a0f5000ad
:1009b000010036000a0078000b02780089017800f7
:1009c000000178008e007800080078003d010700e3
:1009d0004f0778004f05be004f04be00af00b100c6
:1009e00000000600f4874700889fbe008a9fbe0073
:1009f0008c9fbe008e1f78000605be000404be005a
:100a000081bf9f0082b79f00f3b79f00b0009000a6
:100a1000e1b79f001301780092b79f009006900005
:100a2000400690000c06e9000d00e00001003d00ca
:100a30001d002000efb197000c8041000048eb0042
:100a40001e0020001f0037000c06e9000fb09700c1
:100a5000cf80de006109b900a0b79f00b1b79f0049
:100a6000c2b79f00d3b79f000203be000002be00c2
:100a70000800be000a01be006d05070000077800ef
:100a8000efb097000c80400003c3b3000348470059
:100a90008d06e9000fb897000000e90080bf9f00b5
:100aa0002fb29700bfb297004fb39700dfb3970004
:100ab0000800be000a01be00560507000205be0080
:100ac0000004be000c00e0000d003200e00f5400f6
:100ad000e08f5c00e00f5d00e08f5d00daff3a0020
:100ae0000d00e000d8ff3c008fb897000100e00047
:100af000030034001fb197000218a300d2ff3a0090
:100b00000e00e00002003a00ffb197001340a10080
:100b10000c0078004f0778004f06be004f05be005e
:100b20004f04be004f01b100000006000200fa00b1
:100b3000889fbe008a9fbe00800478000104780070
:100b400002007800180190002805900098007800b5
:100b5000b1bf9f00b80590000200e0000200350020
:100b60000110a100b1bf9f00ea815700a200200040
:100b70008a0078003002be002003be000800780022
:100b800098ff0700480190000201e90000015100b0
:100b9000808045003fba97008a01780009007800fc
:100ba000c8000700990090000188a30004003200eb
:100bb00098009000810f500001003d000100780076
:100bc0004f05be004f04be000080fa000000060082
:100bd000fa874700889fbe008a9fbe008c9fbe0098
:100be0008e1f780080047800010478008205780068
:100bf000180190002805900018077800b8009000b0
:100c00000200e000020035000e10a10001003700d4
:100c10001200200070006700e0b79f00090032005a
:100c20003b02be002b03be00e00f5200e08f5a00d3
:100c3000e00f5b00e08f5b00020032008a86e90073
:100c4000010037008a067800e8026700f5b79f00c8
:100c5000010032008d06e9003b02be002b03be00fe
:100c6000e4af9f00f5af9f0086b79f0097b79f0046
:100c7000480690000c06e9000c8040000048eb009c
:100c8000efb297007fb29700890378008104780063
:100c9000d8af9f00020478008bbf9f008a057800c0
:100ca000034578002a0037000c06e9006fab970077
:100cb0006f006300e90f500002003c000003b00029
:100cc000010037007005b0000a03fb001604b100f4
:100cd000f90f53000c003e00000378000650a000fe
:100ce0001606b100f90f530007003e00b4b79f008d
:100cf000a5b79f00c7b79f0031030700cfb3970088
:100d0000afb297003fb2970080747e000804e900fc
:100d10008d06e9006fa89700ffa897000fb1970014
:100d20009fb19700460020008301d1000281d300cb
:100d30008180d3000080d3000603e900faff3a0067
:100d4000e0af9f00f1af9f0082b79f0093b79f0075
:100d5000e10f56000f0036006fa89700ffa897001c
:100d60000fb197009fb19700e00f5000e08f58003f
:100d7000e00f5900e08f5900cbff3a000800e00077
:100d8000c9ff3c000d00e000020034000e18a30073
:100d9000c5ff3a0089007800f4b79f008704780007
:100da0005fac97008a4178000b0578008fbd9700f3
:100db0000500e000100032003b02be002b03be0025
:100dc000e4af9f00f5af9f0086b79f0097b79f00e5
:100dd000e00f5200e08f5a00e00f5b00e08f5b00f5
:100de000050032000c06e90083707e000c06e90065
:100df00000c3b30080707e00ffb297000500e000e2
:100e0000030032000c06e90000c2b30080707e00cf
:100e1000480190000201e9000c0151008c80400063
:100e20000e0278008a01780009007800250007008a
:100e3000990090000188a3000400320098009000ff
:100e4000810f500001003d00010078004f0778003d
:100e50004f06be004f05be004f04be00af01b100fb
:100e6000000006008201780001017800f1ff2700f0
:100e700069023700889fbe008a1f780080047800ce
:100e80004900900002047800800f540001003600f1
:100e900000047800080178006a8544001a00780090
:100ea000db0107001a004400000d7800e8844400cc
:100eb000990c14000048eb004f0578004f04be0069
:100ec00000000600f2874700889fbe008a9fbe0090
:100ed0008c9fbe008e1f780080047800010578008a
:100ee00002047800830578006107620002003a007e
:100ef0008b0f540008003900080178008a00780040
:100f000009007800dbff07008b0f54000200390056
:100f1000880578001e003700088655000c0178000f
:100f2000f00f5600010036000201200001022000ef
:100f30007e805700bd0107008c0678000500370051
:100f400002012000fe80570009007800c9ff070059
:100f5000f0865600ef8f5600f9ff3e004461de0038
:100f600000ff2f000091b90002014600fe805700eb
:100f700009007800bfff07000e00e00004003a00ff
:100f8000080178008a00780009007800b9ff07009e
:100f90000b0078004f0778004f06be004f05be00db
:100fa0004f04be002f01b100000006000000050044
:100fb0000000050000000500000178000040eb0083
:100fc0008080fb008180400063ae200063c2780017
:100fd0000404e00003003a0070ae200060c0780016
:100fe0000000060092017800934f520004003a007e
:100ff00070ae200060c078000309e80001003700ef
:101000000040e800ea4f5000edff36000000060007
:10101000f6874700889fbe008a9fbe008c9fbe0057
:101020008e1f780080047800010478008305780022
:10103000040678000000eb00c0b79f008080eb0042
:10104000d1b79f00e0b79f00f2b79f0000082000d3
:1010500080bf9f0098007800010078000005eb0039
:10106000010037000a05e800304178000204e00082
:101070000300320053c2b300834f5100f9ff3a001e
:101080000a00e000040032000a017800090078003c
:1010900078ff0700180c45001807780050c2b3000d
:1010a0009e4f100033013a000e07e8000e0c780046
:1010b00010003700cfb097000100a0000b003700f0
:1010c000cfb097000110a00008003700cfb0970004
:1010d0000120a00005003700cfb097000130a0002c
:1010e00002003700cfb097000140a000c1b79f00b9
:1010f000000ce8001800780090407800b2c2b300fd
:1011000082cf5000f1ff320007003c0002c2b30062
:1011100082cf5000f0ff320032c2b30082cf5000c5
:1011200007003a00efff3700d2c2b30082cf500071
:10113000e0ff320002c3b30082cf5000e0ff320074
:10114000a2c2b30082cf50000d003a00000ce800ac
:101150001c80e900000e780010007800e0b79f00c6
:101160000000e0000f003d00cfb097000100a2009a
:10117000c1b79f000000ea00e0b79f0009003700f8
:10118000e2010700e0b79f0001003700000ce80013
:10119000180078009000fb000103b100e98f5000b7
:1011a000faff36004fb097000008a300020032009b
:1011b0000010a100c0b79f0018007800e1c2b30082
:1011c00090cf100016003a008000eb00d1b79f00ce
:1011d0000000e800000c7800a1c2b30090cf10001e
:1011e00006003a00000ce8001c80e900000e7800c0
:1011f00010007800d0b79f0009003700c301070036
:10120000d0b79f0001003700000ce80018007800fc
:101210009000fb000103b100e98f5000faff360097
:101220000800780064ff0700804678001800780006
:101230001000fb00db01070091062000810f500029
:101240003800320012003c0041062000810f50009f
:10125000340032000a003c0011062000810f5000cb
:101260002000320031062000810f50009a00320029
:1012700051022000810f5000ae003a00a700370055
:1012800071062000810f5000aa003c008200370048
:1012900001072000810f50005c00320007003c0075
:1012a000e1062000810f500074003200f10620009a
:1012b000810f50009f003a0039003700510720008d
:1012c000810f50002700320081072000810f50005d
:1012d0004200320031072000810f500095003a0093
:1012e000850037008d80fb000c01780000fe2f0088
:1012f0000f004000b90107000000e0009c00320030
:1013000018007800000ce8009041780002fe2f00e1
:101310000f014100f88057000900780024ff070002
:101320000e0037008d80fb008c0178001200200039
:1013300000fe2f000f004000c70107000000e00082
:101340008b003200180ce80002fe2f000f01410054
:10135000f880570009007800eafc07000005450006
:10136000840037008d80fb008c0178000001eb00c9
:1013700000fe2f000f004000b70107000000e00052
:101380007b003200180ce80002fe2f000f01410024
:10139000f880570009007800e4fd0700efff3700f0
:1013a0008d80fb008c0178000001eb0000fe2f0017
:1013b0000f004000a80107000000e0006c003200b0
:1013c000180ce80002fe2f000f014100f8805700c2
:1013d0000900780024fd0700e0ff37008d80fb0046
:1013e0008c0178000001eb0000fe2f000f00400090
:1013f000990107000000e0005d003200180078004d
:10140000000ce80090417800160037008c0178004d
:101410000001eb00010f200000fe2f000f00400034
:101420008d0107000000e00051003200180ce800b8
:101430000fb097009fb097002fb19700bfb19700f2
:10144000e00f5000e08f5800e00f5900e08f590086
:1014500003003a008001eb0002ae2000400037009c
:1014600083c7b30002fe2f000f014100f880570030
:1014700009007800d6fd0700b8ff37000b014500d2
:101480008d80fb008c01780000fe2f000f004000d3
:10149000ca010700360037008d80fb000c01780080
:1014a00000fe2f000f0040004c0107000000e0008c
:1014b0002f00320018007800000ce80090417800fe
:1014c00002fe2f000f014100f8805700090078004c
:1014d000b7fe0700a1ff370000c8b30080cf560059
:1014e00023003a00180ce8001c80e900000e780088
:1014f000104078000d00370000c8b30080cf5600c0
:101500001b003a00180ce8001c80e900000e78006f
:101510008001eb00100178001100370001c8b30012
:1015200081cf560012003a00180ce800e0df9f005f
:101530000800370050c2b300e0df9f000e0c7800b7
:101540000000eb00c0b79f00e0b79f008080eb0079
:10155000d1b79f0013002000e2fd2f000f014100d2
:10156000f880570009007800f4fc07007bff370083
:10157000180ce8000a0078004f0778004f06be00fc
:101580004f05be004f04be006f01b1000000060011
:101590008200fa00889fbe008a1f7800000578004c
:1015a00082047800c13f9f000004eb001000370068
:1015b0000902780088017800a2f72f000f0141008e
:1015c00081f72f008f8040000a00780090fe07000e
:1015d00008004000880f500004003d00b0042000c7
:1015e000905888000084eb00040037000004780065
:1015f0004f3897001004e000edff3a000800780033
:101600004f0578004f04be000080fa00000006007d
:101610008001780002003700b15978000201e9002a
:101620000200e000fcff3a0000000600889fbe00b8
:101630008a9fbe00800478000200e0005a00320059
:1016400001407800814c780082814400f1f99f00cc
:10165000e20f51005400360091449800a1449800d4
:10166000e1f99f00d1f99f00e60f51004e003600ce
:10167000b1449800c1f99f00e80f51004a003600bc
:101680000905ea00630565000a8444000a05510063
:10169000c1ff2f00010565000080fb008000eb000a
:1016a0001210200013102000b2010700008cbe00b1
:1016b0000a01440060b99f0071b99f00e80f55000e
:1016c0003900360020049800310498004004980046
:1016d0005104980020b99f0031b99f0040b99f0084
:1016e00051b99f00f80f55002f0036006004980094
:1016f00071049800000c9800110c9800200c9800c0
:10170000310c9800400c9800510c980020b19f00bb
:1017100031b19f0040b19f0051b19f0060b19f0067
:1017200071b19f0000b99f0011b99f00640164006e
:101730007801410002044400020555006011b80020
:101740000203be000002be000403be006022b80017
:1017500000007200818072000201730083817300b7
:101760000f00370008027800009abe00029abe00ff
:10177000009abe000292be00000c9800110c980066
:10178000220c9800330c9800400c9800510c9800e3
:10179000620c9800730c98000a02b1000802b000b5
:1017a000ff0f5500efff3e00090078004f05be0017
:1017b0004f04be00000006008000780004003700df
:1017c0003104e00002003a00000051000000060071
:1017d000010178000108a300f9ff3a0081017800b7
:1017e00031017800f4ef2f00020242000281ea008a
:1017f000020162000408280004016100f7ff3200c2
:1018000083007800010178003104e000fdff3a0018
:101810000000510000000600f28747008e1f78008c
:1018200002027800030178000000e00002003200ac
:101830000007780001003700728757008002eb0034
:101840000100e000010032008102e90070805700d1
:10185000060009000018eb007280570000a8eb009a
:101860002310200093bf9f00aebf9f00b1bf9f0019
:10187000c5bf9f000100e00004003d00b00420004f
:10188000905888000080eb0005003700004feb0007
:10189000eebf9f00debf9f008400780003000700ba
:1018a0004f0778002f01b100000006000200fa0087
:1018b000881f780000047800e2bf9f006481570011
:1018c0000800780032ff0700980090000148a3004c
:1018d000010032000080eb004f0478000080fa0025
:1018e00000000600800078001000200002022000a6
:1018f000828f500004003200e9805000e48f5000d5
:10190000010036000000eb0000000600889fbe00ca
:101910008a1f780080047800090478008804780021
:10192000394578000a00fb00eeff07000000e000e8
:10193000f9ff3a00b0c2b300804f550005003200f5
:10194000d0c2b3008000eb00804f550005003a0084
:10195000020037008000eb0001003700110020007a
:101960000804e8000000eb00030037006a02b90039
:10197000020052000003b0003801fb0003fd2f00fd
:1019800082814100e98f5100f8ff36000100e0003c
:1019900001003a000000ea004f0578004f04be0045
:1019a00000000600f1fb2f0080804000f98f5000fe
:1019b00001003e000050a00000000600f9ff3700c3
:1019c000f1f92f0080804000f98f500001003e00a7
:1019d000f005b20000000600f9ff3700881f78000c
:1019e0000004780000082000808f500017003500a8
:1019f00010082000808f50000b00340030082000b9
:101a0000808f500011003a009200780068805000ea
:101a1000000978003002be002003be00049cbe0016
:101a20000694be00070037009202780064805200de
:101a3000000978001000be009a000700009cbe005c
:101a40000294be0010002000010037000000eb00ef
:101a50004f0478000000060084082000848f5000a6
:101a60001d0032000d003c0014082000848f50003f
:101a70002700320002003c00040820000400370068
:101a800024082000848f50002a00320044082000df
:101a9000848f500048003a003b003700040a2000c1
:101aa000848f50002c00320004003c000409200008
:101ab000848f500040003a002d003700020c2000b7
:101ac000828f50001e003200020f2000828f5000d3
:101ad00039003a00300037009380e9000200e0004e
:101ae00005003200810978001102fb00cfa2de0060
:101af000612bb9002d003700810978001142780070
:101b00000482fb008002eb006033b800270037003e
:101b100013027800e40052000200e0000a003200e4
:101b2000810978001102be004fabde008603780009
:101b30001e00370093027800e88052000e00370044
:101b400093027800e4805200810978001102be00ff
:101b50006033b800150037009380e90081097800f0
:101b600011027800cfa2de00612bb9000f00370010
:101b700013037800e8005300810978003102be00a9
:101b80002103be00090037009380e9000200e00055
:101b900002003200f1ff37009380e90081097800ec
:101ba000110278008002eb006033b8000498be0098
:101bb0000690be001000050000000500440820004b
:101bc000848f5000270032000a003c0014082000d7
:101bd000848f50001c00320024082000848f5000a5
:101be0002600320004082000848f50002c003a00a8
:101bf0001c00370004092000848f50001f003200b1
:101c000004003c0084082000848f500024003a0027
:101c100007003700040a2000848f500011003200b2
:101c2000040c2000848f50001d003a00060037008d
:101c30009380e9008109780091007800010878001c
:101c400082487800150037009380e9008109780008
:101c50009100780001087800cf91de008288be00f4
:101c60000e0037009380e900810978009100780028
:101c70000108780082087800080037009380e900a6
:101c80008109780091007800010878006112b9009c
:101c9000612bb9008498be008690be00100005003c
:101ca00000000500810378001d0007000001be0050
:101cb0006000b8000478a30013003a006220e1003d
:101cc00015003e000d0039008301d1000281d300d0
:101cd0008180d3008301d1000281d3008180d300b1
:101ce0008301d1000281d3008180d3000538b00088
:101cf000c42add00f300b2008381720007f0a70060
:101d000003f0a0000000060083ff2700020020006f
:101d10006110b900f9ff370003ff2700f7ff370014
:101d2000c70ade00f107b200f50fb200080032006a
:101d3000e1cf4200020032000170a0002400050043
:101d4000810f700001003200040805004400050006
:101d5000810f700002003a00140005008502e900be
:101d60000000400081c04800fcff3b000170a00063
:101d700024000500020ab900001bb9000200b800e7
:101d8000810042008100430000000600889fbe00e1
:101d90008a9fbe0030044200b0844a0030054b00e8
:101da00090854b006000b1000898be000a90be000c
:101db0000440e10005c8e10006d0e10007d8e100d9
:101dc00002003100680040001008e8004f05be0026
:101dd0004f04be0000000600889fbe008a9fbe0020
:101de0003004be002005be000418540005985c00b5
:101df00006185d0007985d00110020000440e10016
:101e000005c8e10006d0e10007d8e1000100390073
:101e10008000eb00108810004f05be004f04be008c
:101e200000000600f4874700889fbe008a9fbe001e
:101e30008c9fbe008e1f7800d0b79f00e1b79f0037
:101e4000f2b79f0083bf9f000605be000404be00da
:101e5000cfae97000000eb00c0b79f00b0b79f0067
:101e6000a0b79f0090b79f0080b79f000006780042
:101e70004fb09700000140000000e00006003d0068
:101e80003c0007000f074700450007000f00400017
:101e9000beff070005003700360007000f074700a8
:101ea0003f0007000f004000cbff07004fb797002f
:101eb0000e00e0000c0035005fb29700efb2970013
:101ec0007fb397008fbb9700100020000100200017
:101ed0006011b80000027200818272000203730078
:101ee000838373001c0007000c06e8000104200037
:101ef000810f5600deff3a000e00e00005003d00b5
:101f00000802be000a03be0000fe2f000f004000c2
:101f10009eff07000d00e00005003a000fb2970099
:101f20009fb297002fb39700bfb397000a00070036
:101f30005fb09700efb097007fb197008fb997001f
:101f40004f0778004f06be004f05be004f04be008d
:101f50004f01b1000000060001000700000006006c
:101f600094b79f00a5b79f00b6b79f00c7b79f0063
:101f7000000006009fb097004f08de0002017000cd
:101f8000a2b79f000fb097004f01de008180400094
:101f90008100710091b79f000efe2f000000060027
:101fa000de0078004f09de000000400000007100f4
:101fb00080b79f006fa897004f01de00818040002e
:101fc000010f71000e0007004f3ade0000004000d4
:101fd00004007000e0af9f00090007000402420007
:101fe00085824a0006034b0087834b00dcff070015
:101ff0000802be000a03be0000fe2f00000006001b
:102000001fb29700afb297003fb39700cfb39700ce
:1020100000000600881f780018002000881f780044
:1020200080ff07008f87e9004f047800000006005a
:10203000801feb007bff07008f87e9000000060090
:10204000889fbe008a9fbe00e00f5000e08f5800be
:10205000e00f5900e08f59000c003d006044b800cb
:102060006055b8000000540081805c0002015d00f2
:1020700083815d00180020001500070008003d0066
:10208000180007000004eb00050037000004eb0017
:102090000f00070002003d0012000700180020009a
:1020a000dcff07000800e000060032006022b800f4
:1020b0006033b8000000520081805a0002015b00ca
:1020c00083815b004f05be004f04be000000060088
:1020d000e00f5200e08f5a00e00f5b00e08f5b00e2
:1020e000000006006044b8006055b80004025400c7
:1020f00085825c0006035d0087835d0000000600aa
:10210000889fbe008a9fbe008c1f7800e00f5000a1
:10211000e08f5800e00f5900e08f59000d003d009e
:102120006044b8006055b8000000540081805c0035
:1021300002015d0083815d001c0020000820e10099
:1021400009a8e1000ab0e1000bb8e1000d003d0074
:10215000080037000006eb00e00f5200e08f5a0045
:10216000e00f5b00e08f5b0006003d006044b800bc
:102170006055b8000402540085825c0006035d00cf
:1021800087835d00aaff07000c00e0000600320014
:102190006022b8006033b8000000520081805a000d
:1021a00002015b0083815b004f0678004f05be0093
:0821b0004f04be000000060010
:020000040000fa
:1021b800256400000000000000000000000000008e
:1021c8000000000000000000000000000000000007
:1021d8000000000000000000000000000073000084
:0421e8006300000090
:020000040000fa
:1021ec000400fa0000e22400000f78001000200028
:1021fc009e00780001017800110009000280d800cf
:10220c008000eb0002402b000289b900020178002b
:10221c00434c20000382b900840178000301410083
:10222c0003402b000300b80001014100820078003c
:10223c004e09dd004200de0000007100c208de0025
:10224c00000078008080e9000e80e800010878002a
:10225c000e80e80090007800211088000762a90029
:10226c009620a80061058000f0f82f000080600027
:10227c000040a0006005880007e2a8000080fa007a
:10228c00000006000a00fa00004f78000e00e8007b
:10229c00014878000e80e80002487800640047008e
:1022ac0003087800660047000408780068004700bf
:1022bc000508780009c8bf000080fb006a00b9005f
:1022cc0080007800c0a72000008040000000e800db
:1022dc008e00e8001148780009c8bf000080fb00a0
:1022ec006a00b90080007800e0a720000080400060
:1022fc008e80e8001148780009c8bf000080fb0000
:10230c006a00b9008000780000a82000008040001e
:10231c00e60047001108780009c8bf000080fb00e8
:10232c006a00b9008000780020a8200000804000de
:10233c00e40047001108780009c8bf000080fb00ca
:10234c006a00b90080007800c0a72000008040001f
:10235c001e48780009c8bf000080fb006a00b90065
:10236c008000780040a8200000804000e800470072
:10237c001108780009c8bf000040e80009e8b70060
:10238c0009c8bf00e54f500001003a000968ef0092
:10239c000080fa00000006000000fa0000c8bf0030
:1023ac000080fb00cf80de00020220000300200032
:1023bc00820f5000838f5800a4013e000060010082
:1023cc00200037003c003700450037005400370030
:1023dc006700370076003700810037009200370025
:1023ec00a1003700b4003700c4003700d300370019
:1023fc00e0003700ef003700fa0037000201370029
:10240c00110137002c0137003b0137004601370022
:10241c004e0137005d0137008e0137008d0137000a
:10242c008c0137008b0137008a0137008901370096
:10243c008801370087013700570137006a013700e0
:10244c0073013700918020009140780008c8bf00cc
:10245c0080cf5000810132008620a90007e2a8003d
:10246c0008c8bf000080fb006a00b900800078003b
:10247c00c0a7200000804000e1aa2000b01878001e
:10248c00a0107800e480400064004000b018780090
:10249c00a0107800e48040006400400090087800b0
:1024ac008180e8000080e80000c8bf000040e80020
:1024bc0000e8b7007c0137000602a8000768ef00af
:1024cc0000418000114180001040880021408800ac
:1024dc0000c8bf000040e80000e8b70072013700f8
:1024ec000241800013418000104080002140800098
:1024fc000001510081815900a00020000100200042
:10250c00800f5100818f59005601360010c0b30066
:10251c0006e8b700e0c1b30000e8b700620137007d
:10252c00f0aa2000104078000004e0000d003200fa
:10253c00e0aa2000104078000080fb000000400062
:10254c00101088000041800011418000104088006c
:10255c002140880000c8bf000040e80000e8b70038
:10256c0051013700b0c0b30000e8b7004e0137008e
:10257c000241800013418000104080002140800007
:10258c000001510081815900a000200001002000b1
:10259c00800f5100818f59003401360010c0b300f8
:1025ac0006e8b700e0c1b30000e8b7003e01370011
:1025bc004110800000002800008060000000e00056
:1025cc0004003a0000c8bf000040e80000e8b70073
:1025dc0035013700e0c1b30000e8b7003201370025
:1025ec00a155800007c8bf000080fb0000804000a0
:1025fc00104078000080fb00101088000041800023
:10260c0011418000104088002140880007c8bf009d
:10261c000040e80007e8b70000c8bf000040e80031
:10262c0000e8b70020013700024180001341800010
:10263c001040800021408000000151008181590030
:10264c00a000200001002000800f5100818f590054
:10265c000801360010c0b30006e8b700e0c1b300b3
:10266c0000e8b7001001370041108000000028007e
:10267c00008060000000e0000c003a00f0aa20008e
:10268c009040780007c8bf0080cf500004003a008b
:10269c0000c8bf000040e80000e8b70002013700a6
:1026ac0060c0b30000e8b700ff003700e0c1b30022
:1026bc0000e8b700fc00370000ab200010407800a9
:1026cc000004e0000a0032000768ef000622a800b0
:1026dc00004180001141800010408800214088009a
:1026ec0000c8bf000040e80000e8b700ee0037006b
:1026fc0030c1b30000e8b700eb00370002418000a6
:10270c0013418000104080002140800000015100e6
:10271c0081815900a000200001002000800f510091
:10272c00818f5900d500360010c0b30006e8b70001
:10273c00e0c1b30000e8b700db003700e0aa2000de
:10274c00104078000080fb00000040000000e80012
:10275c00101088000041800011418000104088005a
:10276c002140880000c8bf000040e80000e8b70026
:10277c00cd003700024180001341800010408000e2
:10278c00214080000001510081815900a0002000ef
:10279c0001002000800f5100818f5900b9003600d4
:1027ac0010c0b30006e8b700e0c1b30000e8b70002
:1027bc00bd00370041108000000028000080600040
:1027cc000000e00004003a0000c8bf000040e80030
:1027dc0000e8b700b4003700e0c1b30000e8b70070
:1027ec00b10037000662a800004180001141800052
:1027fc00104088002140880000c8bf000040e8005d
:10280c0000e8b700a80037000241800013418000a7
:10281c00104080002140800000015100818159004e
:10282c00a000200001002000800f5100818f590072
:10283c009600360010c0b30006e8b700e0c1b30044
:10284c0000e8b700980037009155800007c8bf001a
:10285c000080fb0000804000011080008140780067
:10286c000148780007c8bf000040e80007e8b7003f
:10287c0000ab20009040780007c8bf0080cf50000c
:10288c0003003a0006a2a8000682a8000200370046
:10289c0006a2a9000682a800004180001141800018
:1028ac00104088002140880000c8bf000040e800ac
:1028bc0000e8b7007c003700024180001341800023
:1028cc00104080002140800000015100818159009e
:1028dc00a000200001002000800f5100818f5900c2
:1028ec006c00360010c0b30006e8b700e0c1b300be
:1028fc0000e8b7006c00370000ab20009040780077
:10290c0007c8bf0080cf500004003a0000c8bf00c9
:10291c000040e80000e8b70063003700e0c0b300f7
:10292c0000e8b700600037000642a80000418000b4
:10293c0011418000104088002140880000c8bf0071
:10294c000040e80000e8b700570037000241800063
:10295c001341800010408000214080000001510094
:10296c0081815900a000200001002000800f51003f
:10297c00818f59004900360010c0b30006e8b7003b
:10298c00e0c1b30000e8b70047003700e0c1b30076
:10299c0000e8b70044003700b055800011c0b30008
:1029ac000148780008c8bf000040e80008e8b700fc
:1029bc0008c8bf00e44f5000010036000868ef0063
:1029cc0007e2a90006c8bf000004e00004003200c2
:1029dc000668ef00f0c1b30000e8b7003200370022
:1029ec000068ef003000370000418000114180008a
:1029fc001040880021408800cb02a900c902a90020
:102a0c0000c8bf000040e80000e8b700260037000f
:102a1c000241800013418000104080002140800062
:102a2c00000151008181590010002000010020009c
:102a3c00800f5100818f59001a003600cb02a8007c
:102a4c00c902a8000068ef00170037000000000062
:102a5c0015003700000000001300370000000000d4
:102a6c0011003700000000000f00370000000000cc
:102a7c000d003700000000000b00370000000000c4
:102a8c0009003700000000000700370000000000bc
:102a9c0005003700000000000300370000000000b4
:102aac0001003700000000000080fa000000060062
:102abc000000fa001228ef0010002000a04088004f
:102acc00004180001141800000007800b040880077
:102adc00a281200011c0b30010c9b3003c00070054
:102aec000080fa00000006000600fa008e81e80063
:102afc008049780063004700014878006400470073
:102b0c00020878001428ef00c0af20008e80e80087
:102b1c001148780010c0b300004f78000b0037004c
:102b2c001e80fb009e80fb008100e90064014700d1
:102b3c00120178008100410091407800c2af200062
:102b4c0000004100014878001e4fe8009e80fb0009
:102b5c0063004700104078000080fb000000e80094
:102b6c00808f5000eeff3500630047001040780066
:102b7c008040e8001bc8bf00458120000002eb002c
:102b8c00c3af20000041eb00befd07000080fa003f
:102b9c00000006000400fa008e80e80080487800ef
:102bac000e80e800104078000074a100004f7800ff
:102bbc000e01780011c0b300a0c8b300caff070013
:102bcc001e4078001be8b7000080fa0000000600e9
:102bdc000400fa00004f78000e00e800014878006d
:102bec000e80e800020878001428ef001e417800df
:102bfc0081812000824878001bc8bf0045812000dd
:102c0c008e80e80011027800838120008e00e8009d
:102c1c001141780011c0b3009afd07000080fa0042
:102c2c00000006001200fa006e0147000089be0089
:102c3c00a18120009140780010c0b300004f7800b3
:102c4c0012c0b3000e00e800024878000041eb000f
:102c5c000e80e800024878006300470001487800c5
:102c6c0011c0b30064004700014878008040eb00bd
:102c7c0065004700014878008040eb006600470083
:102c8c00014878000e01780011c0b30000c8b300f1
:102c9c0095ff07000e00e8000001780011c0b3009a
:102cac0000c0eb0090ff07000e80e80000017800e8
:102cbc0011c0b3000040eb008bff0700630047001e
:102ccc000001780011c0b30010c9b30086ff0700e3
:102cdc00640047000001780011c0b3000040eb0015
:102cec0081ff0700650047000001780011c0b300a8
:102cfc0000c0eb007cff0700660047000001780075
:102d0c0011c0b30000c8b30077ff07006e00470086
:102d1c001000be00e00f5000e08f5800460032005b
:102d2c00680047000001780021c0b30080cfb300d9
:102d3c00a7ff070068004700100078000000e000c3
:102d4c001500320068004700100078008000eb008e
:102d5c0070014700120178000091b900020178005f
:102d6c00ee01470093017800019ab90084017800c4
:102d7c0003014100ee014700930178000018b800f0
:102d8c0001014100820078006e0147000089be00fd
:102d9c006e0147000089be006e0047001000be00a7
:102dac004808de00804078006a004700014878003f
:102dbc006e0047001000be004008de008040780026
:102dcc006b004700014878006e0047001000be0001
:102ddc004809dd004800de0000007100c808de0074
:102dec00804078006c004700014878006e00470076
:102dfc0010007800804078006d0047000148780092
:102e0c006a0047000001780041c0b30040c0b30025
:102e1c0035ff070041c0b300670047000148780048
:102e2c00670047000001780011c0b3000040eb00c0
:102e3c002dff07000a00370021c0b30067004700d0
:102e4c0001487800670047000001780011c0b3000a
:102e5c000040eb0024ff0700100020009040880089
:102e6c000080fa00000006000200fa00000f780053
:102e7c0090408000e30f500028003200e30f500018
:102e8c0005003e00e10f50000e003200e10f500033
:102e9c001b003e0007003700e50f500049003200d0
:102eac00e50f500034003900e60f50004c003200a2
:102ebc005800370000b120008040eb00014878003a
:102ecc00540037009281200011c0b30030c1b30010
:102edc003fff070019c8bf006740600019e8b70042
:102eec00004180001141800000007800b040880053
:102efc00904080000000e8009040880045003700ba
:102f0c00a0408000e10f50003f003a00904080004c
:102f1c000000e800904088003e00370019c8bf0050
:102f2c000004e00010003a000241800013418000d0
:102f3c00b04080008000eb000001510081815900fd
:102f4c00e0408000f1408000800f5100818f5900db
:102f5c00020036001228ef002e003700100020006f
:102f6c00904088002b003700904080000000e80063
:102f7c00904088002700370002b1200021c0b30028
:102f8c00e0c1b30012ff070000b120001040780030
:102f9c008080fb0010b12000104078000080fb0006
:102fac004800dd0000804000800078001e007800a2
:102fbc0001087800904080000000e80090408800f4
:102fcc0014003700a0408000e10f500010003a00c0
:102fdc00904080000000e800904088000d00370011
:102fec0010c0b30019e8b7009281200011c0b300e3
:102ffc00b0c0b300bcfe0700100020009040880059
:10300c000000000003003700000000000100370042
:0c301c00000000000080fa000000060028
:020000040000fa
:10302800240800002c010000020000000201050035
:1030380068656c00700a00000000000000000000d5
:103048000000000000000000000000000000000078
:103058000000000000000000000000000000000068
:103068000000000000000000000000000000000058
:103078000000000000000000000000000000000048
:103088000000000000000000000000000000000038
:103098000000000000000000000000000000000028
:1030a8000000000000000000000000000000000018
:1030b8000000000000000000000000000000000008
:1030c80000000000000000000000000000000000f8
:1030d80000000000000000000000000000000000e8
:1030e80000000000000000000000000000000000d8
:1030f80000000000000000000000000000000000c8
:1031080000000000000000000000000000000000b7
:1031180000000000000000000000000000000000a7
:103128000000000000000000000000000000000097
:103138000000000000000000000000000000000087
:103148000000000000000000000000000000000077
:103158000000000000000000000000000000000067
:103168000000000000000000000000000000000057
:103178000000000000000000000000000000000047
:103188000000000000000000000000000000000037
:103198000000000000000000000000000000000027
:1031a8000000000000000000000000000000000017
:1031b80000000000000000000000000050090000ae
:1031c8002c010000000000000a08000008000000b0
:1031d800000000007c0a00003c0000000000000025
:1031e800000800000a00000000000000200800009d
:1031f8000400000000000000b80a000028000000d9
:1032080002000000050000000000000000000000af
:1032180000000000000000000000000000000300a3
:103228000000000000000000000000000000000096
:10323800000000000000000000000000fc0a000080
:10324800160000000000000012080000080000003e
:10325800000000001a08000006000000020000003c
:103268001729100027000000e00a00001c000000d9
:1032780002000000286e69006c29000068076c00d5
:10328800094c83006a907400a07ac000008068002e
:10329800880084006c82000081000000120b00008e
:0c32a80002000000000000000000000018
:020000040000fa
:1032b4000200fa008560a9008580a9000a28ef00b1
:1032c4000c28ef000e28ef001028ef0021358000b5
:1032d40000fe2f0000806000c000b300203588008d
:1032e40061368000f00f2e008080600000302000e6
:1032f400010070006036880023e2a80023a2a90020
:1033040011118000f0f32f0000806000101188007c
:1033140021e2a8002342a8003010200040118800b8
:103324008560a90030118000004f780030118000c2
:10333400004f780030118000004f78003011800079
:10334400004f780041058000f0ff280000806000f5
:1033540000e0a000400588005105800080ff2f0098
:10336400008060000020a000500588009560a8003f
:103374009580a9008580a8000080fa00000006005e
:103384000000fa002002a9000111800090ff2f0024
:10339400008060000011880020a2a9002062a9001a
:1033a400301020004011880023a2a90023e2a900c4
:1033b4002135800000fe2f0000806000c000b300b3
:1033c4002035880061368000f00f2e008080600078
:1033d4000030200001007000603688009580a8004d
:1033e40021e2a8002342a800d042a9000080fa00ec
:1033f400000006000400fa008e80e800804878008f
:1034040051408000010f7800009520001e0040000c
:103414008e80e800114878001e0fe800b0122000ea
:103424009e007800808f5000020036000000eb0000
:10343400000f78009e007800514088009580a80015
:103444000080fa00000006000400fa008e80e80004
:10345400800878000000eb00000f780006003700b9
:103464000e80e800100078001e0040001040780034
:10347400e0ff07001e0fe8000e80e800100078004f
:103484001e004000104078000004e000f4ff3a0001
:103494000080fa00000006000000fa00313a8000c3
:1034a40000e02f00808060006009200001007000af
:1034b400303a8800213a800000fe2f00008060002e
:1034c4005000b300203a8800213a8000f0f32f0026
:1034d40000806000203a880012002000800720004d
:1034e400a1092000337420008049780081497800c4
:1034f4008249780012002000600420007105200039
:10350400237420008049780081497800824978003a
:1035140000000000103a8000610060000000e0003c
:10352400fcff3a0000000000113a80000002200075
:10353400008060000000e000fbff32000080fa0021
:10354400000006001600fa00f40047008008780026
:10355400f00d2900104f7800010e29000e00e8003c
:1035640011487800e2004700080009008018eb00c9
:1035740074004700901f7800c00d2900801f780058
:103584000e00780053f40700e48757000e0078001b
:103594000080fa00000006000600fa00beff0700e3
:1035a40077ff07002e0007000ffb07006000b8003c
:1035b400008fbe0040fd07006000b800008fbe0011
:1035c4000500370076fb07001200200003002000ee
:1035d4001e0f41005e974900703e2000010020004c
:1035e4001e01be00800f5100818f5900f5ff360087
:1035f4006000b8008dfd0700300f290092ff07001e
:103604006000b800008fbe000500370064fb0700af
:1036140012002000030020001e0f41005e974900a5
:10362400703e2000010020001e01be00800f5100ea
:10363400818f5900f5ff36006000b800008fbe008e
:1036440012002000030020001e0f41005e97490075
:1036540053fb07006400470005fe0700f8ff37002e
:103664000000fa001221a90091088000f0fc2f004c
:10367400008060000050a0009008880010272000ff
:103684007008880013e1a800400580007000b300b2
:10369400400588009500a8008800a9008820a9009a
:1036a4009800a8009820a800a1058000f0f82f0039
:1036b400008060000050a000a0058800a1058000e3
:1036c40080ff2f00008060000020a000a00588007b
:1036d4000080fa00000006000800fa0064014700b8
:1036e4000089be000241800013418000640047004d
:1036f4001000be00001f41000197490000000000b7
:103704000041800011418000be0f5000ae8f580070
:0c371400fbff36000080fa0000000600f9
:020000040000fa
:0200000401f009
:04000c0000000000f0
:020000040000fa
:0200000401f009
:0400100043000000a9
:020000040000fa
:0200000401f009
:040014005f00000089
:020000040000fa
:0200000401f009
:04001800f7000000ed
:020000040000fa
:0200000401f009
:04001c00dfff000002
:00000001FF
